{
  "contractName": "Auditor",
  "abi": [
    {
      "inputs": [],
      "stateMutability": "nonpayable",
      "type": "constructor"
    },
    {
      "anonymous": false,
      "inputs": [
        {
          "indexed": true,
          "internalType": "uint256",
          "name": "_newsID",
          "type": "uint256"
        }
      ],
      "name": "votedEvent",
      "type": "event"
    },
    {
      "anonymous": false,
      "inputs": [
        {
          "indexed": true,
          "internalType": "uint256",
          "name": "_newsID",
          "type": "uint256"
        }
      ],
      "name": "votingLocked",
      "type": "event"
    },
    {
      "inputs": [],
      "name": "chairperson",
      "outputs": [
        {
          "internalType": "address",
          "name": "",
          "type": "address"
        }
      ],
      "stateMutability": "view",
      "type": "function",
      "constant": true
    },
    {
      "inputs": [
        {
          "internalType": "address",
          "name": "",
          "type": "address"
        }
      ],
      "name": "crowdauditors",
      "outputs": [
        {
          "internalType": "uint256",
          "name": "weight",
          "type": "uint256"
        },
        {
          "internalType": "uint256",
          "name": "vote",
          "type": "uint256"
        },
        {
          "internalType": "uint256",
          "name": "points",
          "type": "uint256"
        }
      ],
      "stateMutability": "view",
      "type": "function",
      "constant": true
    },
    {
      "inputs": [
        {
          "internalType": "uint256",
          "name": "",
          "type": "uint256"
        }
      ],
      "name": "locked",
      "outputs": [
        {
          "internalType": "uint256",
          "name": "",
          "type": "uint256"
        }
      ],
      "stateMutability": "view",
      "type": "function",
      "constant": true
    },
    {
      "inputs": [],
      "name": "locked_count",
      "outputs": [
        {
          "internalType": "uint256",
          "name": "",
          "type": "uint256"
        }
      ],
      "stateMutability": "view",
      "type": "function",
      "constant": true
    },
    {
      "inputs": [
        {
          "internalType": "uint256",
          "name": "",
          "type": "uint256"
        }
      ],
      "name": "news",
      "outputs": [
        {
          "internalType": "bytes32",
          "name": "name",
          "type": "bytes32"
        },
        {
          "internalType": "uint256",
          "name": "id",
          "type": "uint256"
        },
        {
          "internalType": "uint256",
          "name": "upVote",
          "type": "uint256"
        },
        {
          "internalType": "uint256",
          "name": "downVote",
          "type": "uint256"
        },
        {
          "internalType": "uint256",
          "name": "time",
          "type": "uint256"
        },
        {
          "internalType": "bool",
          "name": "voting_locked",
          "type": "bool"
        }
      ],
      "stateMutability": "view",
      "type": "function",
      "constant": true
    },
    {
      "inputs": [],
      "name": "newsCount",
      "outputs": [
        {
          "internalType": "uint256",
          "name": "",
          "type": "uint256"
        }
      ],
      "stateMutability": "view",
      "type": "function",
      "constant": true
    },
    {
      "inputs": [
        {
          "internalType": "bytes32",
          "name": "NewsItem",
          "type": "bytes32"
        },
        {
          "internalType": "uint256",
          "name": "date_added",
          "type": "uint256"
        }
      ],
      "name": "addNews",
      "outputs": [],
      "stateMutability": "nonpayable",
      "type": "function"
    },
    {
      "inputs": [
        {
          "internalType": "address",
          "name": "auditor_add",
          "type": "address"
        }
      ],
      "name": "giveRightToVote",
      "outputs": [],
      "stateMutability": "nonpayable",
      "type": "function"
    },
    {
      "inputs": [
        {
          "internalType": "uint256",
          "name": "headline",
          "type": "uint256"
        },
        {
          "internalType": "uint256",
          "name": "current_time",
          "type": "uint256"
        }
      ],
      "name": "upVote",
      "outputs": [
        {
          "internalType": "string",
          "name": "result",
          "type": "string"
        }
      ],
      "stateMutability": "nonpayable",
      "type": "function"
    },
    {
      "inputs": [
        {
          "internalType": "uint256",
          "name": "headline",
          "type": "uint256"
        },
        {
          "internalType": "uint256",
          "name": "current_time",
          "type": "uint256"
        }
      ],
      "name": "downVote",
      "outputs": [
        {
          "internalType": "string",
          "name": "result",
          "type": "string"
        }
      ],
      "stateMutability": "nonpayable",
      "type": "function"
    },
    {
      "inputs": [
        {
          "internalType": "address",
          "name": "auditor",
          "type": "address"
        }
      ],
      "name": "addPoints",
      "outputs": [],
      "stateMutability": "nonpayable",
      "type": "function"
    },
    {
      "inputs": [
        {
          "internalType": "address",
          "name": "auditor",
          "type": "address"
        }
      ],
      "name": "subtractPoints",
      "outputs": [],
      "stateMutability": "nonpayable",
      "type": "function"
    },
    {
      "inputs": [
        {
          "internalType": "uint256",
          "name": "item",
          "type": "uint256"
        }
      ],
      "name": "show_upvotes",
      "outputs": [
        {
          "internalType": "uint256",
          "name": "upvotes",
          "type": "uint256"
        }
      ],
      "stateMutability": "view",
      "type": "function",
      "constant": true
    },
    {
      "inputs": [
        {
          "internalType": "uint256",
          "name": "item",
          "type": "uint256"
        }
      ],
      "name": "show_downvotes",
      "outputs": [
        {
          "internalType": "uint256",
          "name": "downvotes",
          "type": "uint256"
        }
      ],
      "stateMutability": "view",
      "type": "function",
      "constant": true
    }
  ],
  "bytecode": "0x60806040526000600155600060025534801561001a57600080fd5b5033600360006101000a81548173ffffffffffffffffffffffffffffffffffffffff021916908373ffffffffffffffffffffffffffffffffffffffff160217905550600160046000600360009054906101000a900473ffffffffffffffffffffffffffffffffffffffff1673ffffffffffffffffffffffffffffffffffffffff1673ffffffffffffffffffffffffffffffffffffffff16815260200190815260200160002060000181905550606460046000600360009054906101000a900473ffffffffffffffffffffffffffffffffffffffff1673ffffffffffffffffffffffffffffffffffffffff1673ffffffffffffffffffffffffffffffffffffffff168152602001908152602001600020600301819055506115e08061013f6000396000f3fe608060405234801561001057600080fd5b50600436106100ea5760003560e01c80639e7b8d611161008c578063b45a3c0e11610066578063b45a3c0e14610276578063c415a03d146102a6578063c4ef454b146102c2578063e6f4b8da146102e0576100ea565b80639e7b8d611461020e578063aa7a17ba1461022a578063ad7b985e1461025a576100ea565b80637af7ff2d116100c85780637af7ff2d1461015e5780638adb5a181461018e578063919eff90146101c05780639981d6d3146101f0576100ea565b8063092a16a5146100ef5780632e4176cf1461010b5780635afa34db14610129575b600080fd5b61010960048036038101906101049190611041565b610310565b005b6101136103f2565b60405161012091906111c0565b60405180910390f35b610143600480360381019061013e919061107d565b610418565b604051610155969594939291906111db565b60405180910390f35b6101786004803603810190610173919061107d565b610461565b60405161018591906112be565b60405180910390f35b6101a860048036038101906101a39190611018565b610481565b6040516101b7939291906112d9565b60405180910390f35b6101da60048036038101906101d591906110a6565b6104ab565b6040516101e7919061123c565b60405180910390f35b6101f86108ee565b60405161020591906112be565b60405180910390f35b61022860048036038101906102239190611018565b6108f4565b005b610244600480360381019061023f91906110a6565b610a66565b604051610251919061123c565b60405180910390f35b610274600480360381019061026f9190611018565b610ee1565b005b610290600480360381019061028b919061107d565b610f3e565b60405161029d91906112be565b60405180910390f35b6102c060048036038101906102bb9190611018565b610f56565b005b6102ca610fb3565b6040516102d791906112be565b60405180910390f35b6102fa60048036038101906102f5919061107d565b610fb9565b60405161030791906112be565b60405180910390f35b600260008154809291906103239061143b565b91905055508160056000600254815260200190815260200160002060000181905550600254600560006002548152602001908152602001600020600101819055506000600560006002548152602001908152602001600020600201819055506000600560006002548152602001908152602001600020600301819055508060056000600254815260200190815260200160002060040181905550600060056000600254815260200190815260200160002060050160006101000a81548160ff0219169083151502179055505050565b600360009054906101000a900473ffffffffffffffffffffffffffffffffffffffff1681565b60056020528060005260406000206000915090508060000154908060010154908060020154908060030154908060040154908060050160009054906101000a900460ff16905086565b600060056000838152602001908152602001600020600201549050919050565b60046020528060005260406000206000915090508060000154908060010154908060030154905083565b60606000600460003373ffffffffffffffffffffffffffffffffffffffff1673ffffffffffffffffffffffffffffffffffffffff1681526020019081526020016000209050600081600001541415610538576040517f08c379a000000000000000000000000000000000000000000000000000000000815260040161052f9061125e565b60405180910390fd5b6005600085815260200190815260200160002060050160009054906101000a900460ff161561059c576040517f08c379a00000000000000000000000000000000000000000000000000000000081526004016105939061127e565b60405180910390fd5b600f6005600086815260200190815260200160002060040154846105c09190611382565b11156106bc5760016005600086815260200190815260200160002060050160006101000a81548160ff02191690831515021790555060056000858152602001908152602001600020600101547f0855ec68e07c736a00f0a60b1aac9ba81cdb448ee585a2b460cd0e983f57c30760405160405180910390a26001600081548092919061064b9061143b565b919050555060056000858152602001908152602001600020600101546000806001548152602001908152602001600020819055506040518060400160405280601381526020017f566f74696e672074696d6520656c61707365640000000000000000000000000081525091506108e7565b60005b816002018054905081101561077e5781600201818154811061070a577f4e487b7100000000000000000000000000000000000000000000000000000000600052603260045260246000fd5b90600052602060002001546005600087815260200190815260200160002060010154141561076b576040518060400160405280600d81526020017f416c726561647920766f7465640000000000000000000000000000000000000081525092505b80806107769061143b565b9150506106bf565b506000339050816002016005600087815260200190815260200160002060010154908060018154018082558091505060019003906000526020600020016000909190919091505560056000868152602001908152602001600020600601819080600181540180825580915050600190039060005260206000200160009091909190916101000a81548173ffffffffffffffffffffffffffffffffffffffff021916908373ffffffffffffffffffffffffffffffffffffffff1602179055506001600560008781526020019081526020016000206002016000828254610863919061132c565b9250508190555060056000868152602001908152602001600020600101547ffff3c900d938d21d0990d786e819f29b8d05c1ef587b462b939609625b684b1660405160405180910390a26040518060400160405280600b81526020017f446f6e6520766f74696e670000000000000000000000000000000000000000008152509250505b5092915050565b60025481565b600360009054906101000a900473ffffffffffffffffffffffffffffffffffffffff1673ffffffffffffffffffffffffffffffffffffffff163373ffffffffffffffffffffffffffffffffffffffff1614610984576040517f08c379a000000000000000000000000000000000000000000000000000000000815260040161097b9061129e565b60405180910390fd5b6000600460008373ffffffffffffffffffffffffffffffffffffffff1673ffffffffffffffffffffffffffffffffffffffff16815260200190815260200160002060000154146109d357600080fd5b6001600460008373ffffffffffffffffffffffffffffffffffffffff1673ffffffffffffffffffffffffffffffffffffffff168152602001908152602001600020600001819055506064600460008373ffffffffffffffffffffffffffffffffffffffff1673ffffffffffffffffffffffffffffffffffffffff1681526020019081526020016000206003018190555050565b60606000600460003373ffffffffffffffffffffffffffffffffffffffff1673ffffffffffffffffffffffffffffffffffffffff1681526020019081526020016000209050600081600001541415610af3576040517f08c379a0000000000000000000000000000000000000000000000000000000008152600401610aea9061125e565b60405180910390fd5b6005600085815260200190815260200160002060050160009054906101000a900460ff1615610b57576040517f08c379a0000000000000000000000000000000000000000000000000000000008152600401610b4e9061127e565b60405180910390fd5b600f600560008681526020019081526020016000206004015484610b7b9190611382565b1115610c775760016005600086815260200190815260200160002060050160006101000a81548160ff02191690831515021790555060056000858152602001908152602001600020600101547f0855ec68e07c736a00f0a60b1aac9ba81cdb448ee585a2b460cd0e983f57c30760405160405180910390a260016000815480929190610c069061143b565b919050555060056000858152602001908152602001600020600101546000806001548152602001908152602001600020819055506040518060400160405280601481526020017f566f74696e6720686173206265656e206c6f636b0000000000000000000000008152509150610eda565b60005b8160020180549050811015610d3957816002018181548110610cc5577f4e487b7100000000000000000000000000000000000000000000000000000000600052603260045260246000fd5b906000526020600020015460056000878152602001908152602001600020600101541415610d26576040518060400160405280600981526020017f43616e7420766f7465000000000000000000000000000000000000000000000081525092505b8080610d319061143b565b915050610c7a565b506000339050816002016005600087815260200190815260200160002060010154908060018154018082558091505060019003906000526020600020016000909190919091505560056000868152602001908152602001600020600601819080600181540180825580915050600190039060005260206000200160009091909190916101000a81548173ffffffffffffffffffffffffffffffffffffffff021916908373ffffffffffffffffffffffffffffffffffffffff1602179055506001600560008781526020019081526020016000206003016000828254610e1e919061132c565b925050819055506040518060400160405280600b81526020017f446f6e6520766f74696e67000000000000000000000000000000000000000000815250925060056000868152602001908152602001600020600101547ffff3c900d938d21d0990d786e819f29b8d05c1ef587b462b939609625b684b1660405160405180910390a26040518060400160405280600b81526020017f766f74696e6720646f6e650000000000000000000000000000000000000000008152509250505b5092915050565b6001600460008373ffffffffffffffffffffffffffffffffffffffff1673ffffffffffffffffffffffffffffffffffffffff1681526020019081526020016000206003016000828254610f34919061132c565b9250508190555050565b60006020528060005260406000206000915090505481565b6001600460008373ffffffffffffffffffffffffffffffffffffffff1673ffffffffffffffffffffffffffffffffffffffff1681526020019081526020016000206003016000828254610fa99190611382565b9250508190555050565b60015481565b600060056000838152602001908152602001600020600301549050919050565b600081359050610fe881611565565b92915050565b600081359050610ffd8161157c565b92915050565b60008135905061101281611593565b92915050565b60006020828403121561102a57600080fd5b600061103884828501610fd9565b91505092915050565b6000806040838503121561105457600080fd5b600061106285828601610fee565b925050602061107385828601611003565b9150509250929050565b60006020828403121561108f57600080fd5b600061109d84828501611003565b91505092915050565b600080604083850312156110b957600080fd5b60006110c785828601611003565b92505060206110d885828601611003565b9150509250929050565b6110eb816113b6565b82525050565b6110fa816113c8565b82525050565b611109816113d4565b82525050565b600061111a82611310565b611124818561131b565b9350611134818560208601611408565b61113d816114b3565b840191505092915050565b600061115560148361131b565b9150611160826114c4565b602082019050919050565b6000611178601f8361131b565b9150611183826114ed565b602082019050919050565b600061119b60288361131b565b91506111a682611516565b604082019050919050565b6111ba816113fe565b82525050565b60006020820190506111d560008301846110e2565b92915050565b600060c0820190506111f06000830189611100565b6111fd60208301886111b1565b61120a60408301876111b1565b61121760608301866111b1565b61122460808301856111b1565b61123160a08301846110f1565b979650505050505050565b60006020820190508181036000830152611256818461110f565b905092915050565b6000602082019050818103600083015261127781611148565b9050919050565b600060208201905081810360008301526112978161116b565b9050919050565b600060208201905081810360008301526112b78161118e565b9050919050565b60006020820190506112d360008301846111b1565b92915050565b60006060820190506112ee60008301866111b1565b6112fb60208301856111b1565b61130860408301846111b1565b949350505050565b600081519050919050565b600082825260208201905092915050565b6000611337826113fe565b9150611342836113fe565b9250827fffffffffffffffffffffffffffffffffffffffffffffffffffffffffffffffff0382111561137757611376611484565b5b828201905092915050565b600061138d826113fe565b9150611398836113fe565b9250828210156113ab576113aa611484565b5b828203905092915050565b60006113c1826113de565b9050919050565b60008115159050919050565b6000819050919050565b600073ffffffffffffffffffffffffffffffffffffffff82169050919050565b6000819050919050565b60005b8381101561142657808201518184015260208101905061140b565b83811115611435576000848401525b50505050565b6000611446826113fe565b91507fffffffffffffffffffffffffffffffffffffffffffffffffffffffffffffffff82141561147957611478611484565b5b600182019050919050565b7f4e487b7100000000000000000000000000000000000000000000000000000000600052601160045260246000fd5b6000601f19601f8301169050919050565b7f486173206e6f20726967687420746f20766f7465000000000000000000000000600082015250565b7f566f74696e67206f6e207468697320686173206265656e20626c6f636b656400600082015250565b7f4f6e6c79206368616972706572736f6e2063616e20676976652072696768742060008201527f746f20766f74652e000000000000000000000000000000000000000000000000602082015250565b61156e816113b6565b811461157957600080fd5b50565b611585816113d4565b811461159057600080fd5b50565b61159c816113fe565b81146115a757600080fd5b5056fea264697066735822122043bead60225aecde79175ac5de6e81e94118818e6b2eeca6851a18cb0066689c64736f6c63430008040033",
  "immutableReferences": {},
  "source": "pragma solidity >=0.7.0 <0.9.0;\n/// @title Voting with delegation.\n\ncontract Auditor {\n\n    event votedEvent(uint indexed _newsID);\n    event votingLocked(uint indexed _newsID);\n\n    struct CrowdAuditor {\n        uint weight; // weight is accumulated by delegation\n        uint vote;   // index of the voted proposal\n        uint[] past_votes; //list of past proposals they have voted on\n        uint points;\n    } \n\n    mapping(uint => uint) public locked; //id of headlines that have been locked from voting\n    uint public locked_count =0;\n     uint public newsCount =0;\n\n    struct News{\n        bytes32 name;   // short name (up to 32 bytes)\n\t    uint id;\n        uint upVote; // number of up votes\n        uint downVote;\n      \n        uint time;\n        bool voting_locked;\n        address[] auditors_up;\n        address[] auditors_down;\n    }\n \n    address public chairperson; // we make the person who set up the node as the chairperson\n    mapping(address => CrowdAuditor) public crowdauditors;\n//making an array of news type objects\n    //News[] public news;\n      mapping(uint => News) public news;\n\n    //add news is used to add a news item to the news array\n    function addNews(bytes32  NewsItem, uint date_added) external {\n        newsCount ++;\n        news[newsCount].name = NewsItem;\n        news[newsCount].id = newsCount;\n        news[newsCount].upVote = 0;\n        news[newsCount].downVote = 0;\n        news[newsCount].time = date_added;\n        news[newsCount].voting_locked = false;\n}\n \n    constructor() {\n        \n        chairperson = msg.sender;\n        crowdauditors[chairperson].weight = 1;\n        crowdauditors[chairperson].points = 100;\n\t }\n\n    //this function is used to give a node persmission to vote, only nodes with permissions can vote\n    function giveRightToVote(address auditor_add) external {\n        require(\n            msg.sender == chairperson,\n            \"Only chairperson can give right to vote.\"\n        );\n        require(crowdauditors[auditor_add].weight == 0);\n       crowdauditors[auditor_add].weight = 1;\n         crowdauditors[auditor_add].points = 100;\n        \n    }\n       \n    function upVote(uint headline, uint current_time) public \n    returns (string memory result) {\n                CrowdAuditor storage sender = crowdauditors[msg.sender];\n        require(sender.weight != 0, \"Has no right to vote\");\n    require( !(news[headline].voting_locked) , \"Voting on this has been blocked\" );\n    if (current_time - news[headline].time > 15) {\n        news[headline].voting_locked = true;\n        emit votingLocked(news[headline].id);\n        locked_count ++;\n        locked[locked_count] = news[headline].id;\n\n        result = \"Voting time elapsed\";\n    } else {\n        //each auditor can only vote once per headline\n        for (uint p=0; p<sender.past_votes.length ;p++){\n            if(news[headline].id == sender.past_votes[p]) {\n     result = \"Already voted\";\n                 } }\n        \n        address voter = msg.sender;\n        sender.past_votes.push(news[headline].id);\n        \n        news[headline].auditors_up.push(voter);\n        news[headline].upVote += 1;\n\temit votedEvent(news[headline].id);\n                result = \"Done voting\";\n        \n    }\n    }\n \n function downVote(uint headline, uint current_time) public \n    returns (string memory result) {\n                CrowdAuditor storage sender = crowdauditors[msg.sender];\n        require(sender.weight != 0, \"Has no right to vote\");\n    require( !(news[headline].voting_locked) , \"Voting on this has been blocked\" );\n    if (current_time - news[headline].time > 15) {\n        news[headline].voting_locked = true;\n        emit votingLocked(news[headline].id);\n        \n        locked_count ++;\n        locked[locked_count] = news[headline].id;\n        result = \"Voting has been lock\";\n    } else {\n        //each auditor can only vote once per headline\n        for (uint p=0; p<sender.past_votes.length ;p++){\n            if(news[headline].id == sender.past_votes[p]) {\n                result = \"Cant vote\";\n                 } }\n    \n                         address voter = msg.sender;\n        sender.past_votes.push(news[headline].id);\n        \n        news[headline].auditors_up.push(voter);\n        news[headline].downVote += 1;\n       result =  \"Done voting\";\n\temit votedEvent(news[headline].id);\nresult = \"voting done\";\n        \n    }\n    }\n\n    function addPoints(address auditor) public \n     {\n            crowdauditors[auditor].points += 1;     \n    }\n\n    function subtractPoints(address auditor) public \n     {\n            crowdauditors[auditor].points -= 1;       \n    }\n\n /* user gives an input of the news item they want to check by adding its number in the array\n the accuracy of that item is returned*/\n   function show_upvotes(uint item) public view\n    returns  (uint upvotes){\n         upvotes =  news[item].upVote ;\n    }\n    \n    function show_downvotes(uint item) public view\n    returns  (uint downvotes){\n        downvotes =  news[item].downVote;\n    } \n    }\n\n",
  "sourcePath": "/home/blue/Downloads/Legitify_v03.1/contracts/Auditor.sol",
  "compiler": {
    "name": "solc",
    "version": "0.8.4+commit.c7e474f2.Emscripten.clang"
  },
  "schemaVersion": "3.4.1",
  "updatedAt": "2022-06-03T17:15:01.814Z",
  "networkType": "ethereum",
  "devdoc": {
    "kind": "dev",
    "methods": {},
    "title": "Voting with delegation.",
    "version": 1
  },
  "userdoc": {
    "kind": "user",
    "methods": {},
    "version": 1
  }
}